:1000000016C0B9C0189518950994B5C092C0189536
:100010009AC018951895D1C01895189518951895E7
:100020001895CBC01895697A40744042405B002413
:100030000FBEF4E0EFE5FEBFEDBF0292E036F00543
:1000400009F4EEE1E015F005C1F791B69092600079
:1000500094B604BE80E088BB87E087BB80E085BBA8
:1000600080E084BB80E082BB88E381BB82E083BF09
:1000700081E08EBDF5BD88E181BD88E081BDCCD039
:10008000DBD0A2E89E918E9189569A4729F0E6E24C
:1000900085918D93A838E1F790FA9F1226F48DD0C0
:1000A00091D095D070C292FE04C091D086D00068E5
:1000B0006AC291FE02C090D066C293FE05C07DD098
:1000C0007CD085D084D0FBCFA6D0492D58E040FF0E
:1000D00079D040FD81D0A0D046955A95C1F7F4CF94
:1000E0009FB68A9409F4ECE79FBE18959FB68A9450
:1000F00009F4EAE89FBE189520FDC29A21FDC19A35
:1001000022FDC09AEAE83F12E6E7832C24BC18954A
:10011000A8951895A89511FDEFCFECE75F12E0E7E1
:10012000852C20FDC29821FDC19822FDC09844BCB9
:1001300018959FB640916300415008F40E7F40939C
:1001400063009FBE18959FB640916400439540930D
:1001500064004F7019F4BB2019F0BA949FBE189533
:10016000409165004395409365004091660043953A
:1001700040936600F3CF4CB55DB5829B0EC09FB631
:1001800040505A4659BD48BD42E045BF48E048BFCF
:100190009FBE18959FB6BB240CC098B693FCFACFAF
:1001A0009FB63A0148B559B540505649641A750A88
:1001B000106143E045BF9FBE189578EC90E5949A96
:1001C000C29A0EC074EB94E6939AC19A09C070EA81
:1001D00098E7959AC09A04C07CE89CE8939AC29AE2
:1001E00008B215B2A2B208BA15BAA2BAF2BF82B763
:1001F0008032E8F368B3687F68BB62B3677C62BB38
:1002000060E1F2BFA89582B78717E8F36A95C9F74E
:100210009A9549F7089500D000D000D09FE060E1A2
:10022000F2BF81E088BFA89588B780FFFDCF6A95AF
:10023000B9F79A95A1F708958091600081BFC0E851
:10024000D0E080E890E0A895E199FDCF67B760FD28
:10025000FACFC83881F09FBB8EBB0196E09A6DB390
:1002600017F06993F0CF79917DBBF894E29A671308
:10027000E19A7894E8CFD2DF8FEF81BF0895000C28
:10028000111CAA1C8A95D9F70895869FA12C969FC8
:10029000A00CC11DDF1F879FA00CC11DDF1F979FF2
:1002A000C00DD11D08951F7EC2E8D0E007FD42C0F9
:1002B00001C0B1DFB301A895FF9FAA24C23831F471
:1002C00060348BE57807B0F18FE113C08091820034
:1002D000681780918300780768F7C43811F482E2C8
:1002E00008C080918400681780918500780710F31A
:1002F00080E2882EA89514FFFDCF1F7EC301080E53
:10030000191EAF1E861B970B80569F4F815491403C
:1003100080F68A9479F783E0B2DF1992A99257DFC9
:10032000C43841F27BDF53DFC63811F077DF4FDF8F
:1003300083DF27C01F7EC0917C00D0917D00C30168
:100340008C1B9D0B18F4CC27DD270EC01F77609106
:10035000780070917900CAE3D0E097DFC93583E077
:10036000D80710F0C9E5D3E0C0937600D0937700AA
:1003700001FF03C082E0B82E81C080E1B816BF1E25
:100380000895809184009091850080937C009093E3
:100390007D006091820070918300681B790B05D00D
:1003A0008093780090937900089585E595E0019613
:1003B000A8959F3F890721F0C0EEDCEF66DFB9F713
:1003C0000895F8948CB59DB56091640078B77894E1
:1003D000903872FD6F1FC0916700D0916800A090A7
:1003E00069008093670090936800609369000090B3
:1003F0006A0010906B0070916C00C0936A00D093FB
:100400006B00A0926C0080199109670B803077E037
:1004100097076F0728F480E097E060E0D694C794D0
:100420006130A9E5B3E058F06230ADEAB1E038F0F0
:10043000643018F064E090E080E0A6EDB0E07D016B
:1004400080936D0090936E0060936F006695979512
:100450008795C0916700D0916800A090690073E310
:100460002DD0C0937000D0937100A092720041D043
:1004700014FD60CFC0917600D0917700CE15DF05D6
:1004800008F0E701CC15DD0508F0E60189E593E009
:100490008C1B9D0B79F01D7F209671F016FF04C018
:1004A000880F991FCC0FDD1F1E7FC09580951E0100
:1004B0002C0108951260F8CF1160F7CF879FC10D0E
:1004C000DF1FAF1E979FC00DD11DAF1E679FD00DC0
:1004D000A11C089580916D0090916E0060916F0055
:1004E000C0917000D0917100A09072000895F2DF69
:1004F000E5DF79B7072E7B7E79BF70E1F894DBBD2D
:10050000CABD78BF8CB59DB57894016060916400D8
:1005100078B7903872FD6F1FC81BD90BA60AA0923E
:1005200063000AF40E7F09BE0895279670E1F894DF
:100530008CB59DB5C80FD91FDBBDCABD78BFA092D1
:10054000630001607894089514FDF4DE00FDFCCF93
:100550000895F5BD80E488BFE8E882B3877C82BB5C
:1005600088B3887F88BB0895829BF0936500809153
:10057000650085FF0895F894F7BBF4BBF1BB88E1F3
:1005800081BDF1BD3DCBFDDE84E588BF89BF83E041
:1005900085BF80E48BBF7894BB24137EF093650005
:1005A000F0936600A89514FD02C0DEDFFBCF7BDE72
:1005B000C0917600D0917700209671F78AE0B81646
:1005C00088F3812F8C7009F0FBBF06DE05DE04DEA8
:1005D000C0DF0D7FF0936500F0936600A89514FDD1
:1005E0000CC0BB20D9F7C0DF809166008837B1F717
:1005F0008CE380936600EBDDF1CF9CDE209651F317
:10060000BB2041F3A6DF80B7886080BFCFE8D0E091
:100610006E0102604CD086E0809362008CE0809393
:10062000610081E085BD17FD0DC047D0AAD043D041
:10063000B6D043D0CED03FD0D8D03FD0F2D03BD0F0
:10064000FCD00CC038D007D138D0F0D034D0DBD0BB
:1006500034D0C6D030D0AFD030D09AD080916100A5
:10066000803010FDF1F0E601209661F2809161008A
:100670008C3038F4839580936100629686ED90E02B
:1006800004C01F7B6B9689E593E0C817D90710F06B
:100690006C01C9CF6E01C7CF5CDFC0DD98DD92DD94
:1006A000BDDD96CFE8E888B3887F88BB5EC0F09355
:1006B000610010645AC01F7D01C010628091620009
:1006C000815050F08093620016FF29C0C0E0DFEF38
:1006D000AF2E2BDFA4E03BC0E83809F4EAE816FFB0
:1006E0001EC0C0917300D0917400A090750072B7C5
:1006F0007F71D71BAF0A30F0C0307AECD70778E0B3
:10070000A70620F4C0E0D8EB7BE0A72EC0937300CF
:10071000D0937400A092750008DFAFEF18C07BE1A2
:10072000E6DE12DF79E5E3DE00FFBCCF14FD02DE7A
:1007300068B1612765FDF8CFCDDEA92F6F13AFEF4C
:10074000C80FD91FA61EC80FD91FA61ED2DEBA2FEA
:1007500000FFADCF14FDEEDD68B1612765FD03C07C
:10076000AB17AF1FF5CFAA9599F72BDE16FFECDE7E
:10077000809162008F131160BF1208958F918F9145
:100780008BCF84E087B93798949810FF959A089595
:1007900085E087B93798959810FF949A0895379A0D
:1007A000F894287F10FF226088B3C09898B389130B
:1007B000C19A7894089584E087B93798F894287F8F
:1007C00010FF246088B3C19898B38913C09A7894B5
:1007D000089585E087B93798959810FF939A089502
:1007E000379A939810FF959A089584E087B93798BF
:1007F000F894287F10FF216088B3C19898B38913BB
:10080000C29A7894089585E087B93798F894287F3C
:1008100010FF226088B3C29898B38913C19A789464
:100820000895379A939810FF949A089584E087B9B1
:100830003798949810FF939A089585E087B9379870
:10084000F894287F10FF246088B3C29898B3891366
:10085000C09A78940895379AF894287F10FF216001
:1008600088B3C09898B38913C29A78940895FFFF0B
:10087000FFFFFFFFFFFFFFFFFFFFFFFFFFFFFFFF88
:10088000FFFFFFFFFFFFFFFFFFFFFFFFFFFFFFFF78
:10089000FFFFFFFFFFFFFFFFFFFFFFFFFFFFFFFF68
:1008A000FFFFFFFFFFFFFFFFFFFFFFFFFFFFFFFF58
:101C0000E4E0FFE5FEBFEDBF00E0ECEBFEE0C0E886
:101C1000D0E0A0E6B0E042E045BD5CEE539571F047
:101C200040EC04BD48BFA03619F0E8B6E6FC46C05B
:101C30008299F9CF04BD48BFE8B6E6FCE1C1829BBA
:101C4000FBCF04BD48BFE8B6E6FCE8CF8299FBCFE6
:101C500034B404BD48BFE8B6E6FCD2C1829BFBCFDA
:101C600024B4022C030C802C07940694402C069478
:101C70008008809420943094409460EE83E084BC8B
:101C800048BFE8B6E6FCBCC1829BFBCF84BC48BF22
:101C9000E8B6E6FCC3CF8299FBCF0894E8B6E6FC31
:101CA00023C0829BFBCFE8B6E6FCB8CF8299FBCF7E
:101CB0008894E8B6E6FC18C0829BFBCF43BC88E161
:101CC000929A8A9A34BC48BFE8B6E6FEFDCF929855
:101CD00024BC48BFE8B6E6FEFDCF8A9589F7C0E68A
:101CE000D0E060E081E00BC0679548F6815068F570
:101CF0005CEE0994CA17DB07D1F0699188E066951C
:101D0000929A34BC48BFE8B610F0E7FC02BBE6FE8E
:101D1000FACF929808F0929A24BC48BFE8B610F027
:101D2000E7FC02BBE6FEFACF8A9549F7E3CF929A29
:101D300034BC48BFC0E8D0E0A0E6B0E0E8B6E7FEBB
:101D4000FDCF8A9802BB6ACF80E060E898CFECEBC9
:101D5000FEE0C0E8D0E0F8CF009000000090000066
:101D60000090000000900000009000000090000033
:101D70000090000000900000000000006B3121F78F
:101D8000562E3796E1CF962E56263496DDCF762EF8
:101D900056263496D9CF662E56263496D5CF6E3039
:101DA000B1F656263596D0CF69935626CF3584E0C6
:101DB000D80768F681E0681A700A09F43C96C4CF27
:101DC0006511C5CFC0E8D0E0699199918991FD0175
:101DD0007BE170839182028372E073837EE074837F
:101DE0006583068317966130A1F48BE0838388E0D6
:101DF0008D93EF01ECEDFFE185918D93E43EE1F7EA
:101E0000FE01819161918627EA17FB07D9F78D932F
:101E10009ECF6D3151F5792F90E0039683839283A5
:101E200003970D938A95E9F789916991603380074B
:101E300094E0790779F460878991803059F4699149
:101E400060308EE131F0613083E919F0623087E073
:101E500009F482870D93D5CF8017900709F5D990A3
:101E6000C9905601AA0CBB1CCCCF6330E1F06230A4
:101E700041F2603131F2613121F2663069F3623151
:101E8000F1F1833F73E0970758F4643109F166314B
:101E900069F127966531C1F16331F9F10000000065
:101EA00080EC8683AECF90398FE071F0913982E07B
:101EB00059F092398AE041F0943982E329F0903860
:101EC00080E011F0913861F78D9383E0838399CF9F
:101ED00049D0EF01F5018FD076FDFDCF65916D936F
:101EE0000197E1F75F01FE010D938BCF3BD011E02D
:101EF0003ED06DB36D930197D9F70D9382CFCC246B
:101F0000DD2480E092E0689416E06FEF0EF06991B6
:101F10002ED00197D1F7E89474CF8F7F61E07F01D5
:101F2000F5010990199068D032960297D1F70F0108
:101F3000F501500163E0E03C7FE1F70719F058D06C
:101F4000F7015FCF0BD065E009D061E107D0F8CF92
:101F500077B770FDFDCFE199FECF0895F9DF67BF38
:101F6000E8950895039692838383039708953AD062
:101F7000DFBACEBA0894C01ED01E762FE09A6DB399
:101F8000671312FF08957DBBE29A1CBB0895FFFF03
:101F9000FFFFFFFFFFFFFFFFFFFFFFFFFFFFFFFF51
:101FA000FFFFFFFFFFFFFFFFFFFFFFFFFFFFFFFF41
:101FB000FFFFFFFFFFFFFFFFFFFFFFFFFFFFFFFF31
:101FC000687474703A2F2F6769746875622E636F36
:101FD0006D2F73696D2D2F7467792F00415652490B
:101FE00053505F3277B770FDFDCFE199FECF089572
:101FF00003D065E001D061E1F5DF67BFE8950895A2
:00000001FF
